S01B000041546D656761333238505F52656365697665732E7372656358
S11300000C9434000C943E000C943E000C943E007E
S11300100C943E000C943E000C943E000C943E0064
S11300200C943E000C943E000C943E000C943E0054
S11300300C943E000C943E000C943E000C943E0044
S11300400C943E000C943E000C943E000C943E0034
S11300500C943E000C943E000C943E000C943E0024
S11300600C943E000C943E0011241FBECFEFD8E048
S1130070DEBFCDBF0E9440000C9474000C940000BD
S113008018B81BB81092C50087E48093C40080E1BF
S11300908093C10086E08093C200E0ECF0E0A6EC1F
S11300A0B0E080818823ECF78C91813419F082349C
S11300B071F0F7CF3C9A449A2FE986E891E02150F9
S11300C080409040E1F700C000004498EACF3D9A98
S11300D0459A2FE986E891E0215080409040E1F76D
S10F00E000C000004598DDCFF894FFCF6D
S9030000FC
