:100000000C9434000C9449000C9449000C94490061
:100010000C9449000C9449000C9449000C9449003C
:100020000C9449000C9449000C9449000C9449002C
:100030000C9449000C9449000C9449000C9449001C
:100040000C9449000C9449000C9449000C9449000C
:100050000C9449000C9449000C9449000C944900FC
:100060000C9449000C94490011241FBECFEFD8E036
:10007000DEBFCDBF11E0A0E0B1E0E0E4F1E002C0FE
:1000800005900D92A831B107D9F70E944B000C944E
:100090009E000C940000CF93DF93CDB7DEB7689736
:1000A0000FB6F894DEBF0FBECDBF88E1E0E0F1E00F
:1000B000DE01119601900D928A95E1F71092C5002C
:1000C00087E48093C40086E08093C20088E0809338
:1000D000C1009981992389F0AE014E5F5F4FE0EC3A
:1000E000F0E026EC30E0808185FFFDCFD9019C93C4
:1000F000DA019D91AD019111F6CFE0ECF0E0808145
:1001000085FFFDCF8AE08093C600E0ECF0E08081BF
:1001100085FFFDCF8DE08093C60087EA91E60197C9
:10012000F1F700C0000080E090E068960FB6F89408
:10013000DEBF0FBECDBFDF91CF910895F894FFCF02
:1001400048656C6C6F2066726F6D2041546D6567F9
:080150006133323870202000F9
:00000001FF
